:100000000AC023C022C021C020C020C01EC01DC005
:100010001CC01BC01AC011241FBECFEDCDBF10E005
:10002000A0E6B0E0E6EFF0E003C0C89531960D928F
:10003000A036B107D1F710E0A0E6B0E001C01D92F4
:10004000A336B107E1F749D055C0DACF1F920F921E
:100050000FB60F9211242F938F939F93809160007E
:10006000882319F08130F1F410C0809161009091E3
:100070006200019690936200809361008F5F9340CD
:1000800089F481E0809360000DC0809161009091BF
:10009000620001979093620080936100892B11F4B4
:1000A0001092600080916100909162009BBD8ABDBA
:1000B0009F918F912F910F900FBE0F901F901895C9
:1000C00083E88FBD8EB581608EBD1BBC1ABC88E0F5
:1000D00087BB80E889BF78940895CFEDD0E0DEBF7C
:1000E000CDBFEEDF85B7806285BF889585B78F7DF0
:0600F00085BFF8CFFFCF31
:00000001FF
