:1000000054C06FC0B8C37AC06BC06AC069C068C052
:1000100067C066C065C064C063C062C091C00902A9
:1000200043000201008032090400000102020100C5
:100030000524001001042402020524060001052401
:10004000010301070583030800FF09040100020AF8
:1000500000000007050102010000070581020800F9
:10006000000403090422037700770077002E007252
:10007000006500630075007200730069006F006E18
:10008000002E006A00700010035500530042002D3E
:10009000003200330032001201100102000008C0DB
:1000A00016E1050001010200010011241FBECFE589
:1000B000D2E0DEBFCDBF10E0A0E6B0E0E8E1FBE0BB
:1000C00002C005900D92AC36B107D9F711E0ACE64D
:1000D000B0E001C01D92A034B107E1F7ABD01AC562
:1000E0008FCFB299189501BB05B50FBD09E00DBDC5
:1000F00007E000BF00E20BBF01B3189501BB0FB7CB
:1001000002BB0DB50A950DBD79F00BB50695B299F8
:1001100000680BBD13BB0FB51EB5011B0FBD13B39C
:1001200002B30FBF01B3189500BF04BD0BB50DBBE3
:1001300000E40ABF00E60BBF02B30FBF01B318957E
:1001400001BBF09907C00BE40EB90EBB08B50FB99F
:1001500001B3189500E40EB900E003BF01B3189590
:10016000881F9795881F9795881F9795881F979543
:10017000881F9795881F9795881F9795881F979533
:10018000892F0895FC018381813049F487E990E04B
:1001900090931901809318018091970008958EE142
:1001A00090E0909319018093180183E40895FC0175
:1001B0002081822F80768032B9F49181892F8052FC
:1001C000823010F48FEF0895923239F480916C00F0
:1001D000882319F482E080936C0027FD05C081E03C
:1001E0008093710080E0089580E00895FC01809183
:1001F0006D00808380916E0081831282138214824D
:10020000158288E0868387E00895DC010DC0809127
:10021000FC00E82FF0E0E558FF4F9D9190838F5F41
:100220008F778093FC006150662389F78FEF80936E
:100230001A0108952BE088E190E00FB6F894A89594
:1002400081BD0FBE21BD87EE88BB88E187BB20E062
:1002500043EB51EFA895CA010197F1F72F5F2431C5
:10026000C9F717BA80EC92E190936E0080936D000D
:100270002FD0CFD010926C00109271007894A89576
:100280001BD16BD090916C009923C9F380913401FC
:1002900084FFF5CF923021F480E690E068E003C05F
:1002A00088E690E062E0C4D080916C008150809339
:1002B0006C00E5CFFC01808180936D00818180938B
:1002C0006E0080916D0090916E0002D081E00895E3
:1002D0001F939C0111E010BD80E888B9B99ABA98C3
:1002E0008BB78F7B8BBF1ABC13BE10BE80EE8EB94E
:1002F00084E58DB98FEF8FB9B9017695679580E068
:1003000090E06C5E70418C4F9F4F40E050E0E0D336
:1003100021502EBD8EB589BD1DBC8EB590E00196D5
:100320009595879595958795819585BD82E08ABD40
:1003300014BD90E499BF85B78C7F826085BF9ABF5A
:100340008BB780648BBF1092FD0010927A001092E0
:10035000FB001092FC001F91089584B5882379F466
:1003600090917A00983058F48DB3E92FF0E0EE5870
:10037000FF4F80839F5F90937A0081E084BD8091DE
:10038000090184FF12C060917A00662321F48091F4
:100390007100882351F082E790E06CD080917A0060
:1003A00088708093710010927A0083B7882381F55A
:1003B000E091FD008091FC008E1751F1F0E0E558CE
:1003C000FF4F8081CDDE2091FD002F5F2F7720939E
:1003D000FD0012BE9BE49EB91EBA982F9295907FA5
:1003E0009F6098BD8695F8948FB983E083BF789419
:1003F00080911A0187FF0CC08091FC0090E0821B65
:1004000091098F7790708837910514F410921A0132
:100410000895AC9A8BB780628BBF8BE480930A01FE
:10042000809335018AE58093090180933401089512
:100430001F93DC01162F8091340184FF07C0809147
:10044000350198E889278093350103C08AE58093B8
:100450003401912FE6E3F1E08D91819391501916CB
:10046000DCF386E391E0612F6FD11C5F10933401C0
:100470001F9108951F93DC01162F8091090184FFBD
:1004800007C080910A0198E8892780930A0103C078
:100490008AE580930901912FEBE0F1E08D91819342
:1004A00091501916DCF38BE091E0612F4DD11C5F68
:1004B000109309011F9108951F93CF93DF936091CB
:1004C0001A01635067FDB2C080911701CCE0D0E003
:1004D000C81BD109C25EDE4F80911601803118F42D
:1004E000CE0193DE9DC08D3209F08AC0683009F0DC
:1004F00097C083EC8093FE008AE580936A00109297
:1005000070008881807621F0CE0151DE282F65C0F1
:100510009A81109207018981882321F410920801A1
:1005200022E054C0853019F490931B014EC08630F0
:10053000B1F58B81813041F487E990E09093190106
:100540008093180122E127C0823021F4CE011ADE07
:10055000282F21C08330F1F4992341F481E690E003
:10056000909319018093180124E015C0913041F453
:1005700085E690E0909319018093180122E20BC068
:10058000923041F487E890E090931901809318012C
:1005900020E101C020E080E4809370001EC088301C
:1005A00021F421E08DE191E013C0893019F490939A
:1005B0001D010BC08A3011F421E008C08B3029F4F2
:1005C0008BE480930A018093350120E087E091E07D
:1005D000909319018093180109C02F3F39F4888145
:1005E00087FD2E8180E88093700006C08F8188236C
:1005F00019F48E81821708F0822F80936B0010C04F
:100600008091700087FF0CC0CE0154DE8F3F21F433
:100610008EE180936A0004C0882311F010926B0071
:1006200080911A01181614F410921A0180916A0030
:1006300084FF58C080916B008F3F09F453C0182F7E
:10064000893008F018E0811B80936B008091FE00D8
:1006500098E889278093FE00112391F18091700022
:1006600087FF08C08FEF90E0612FC0DD182F893021
:1006700098F526C0209118013091190186FF0DC010
:10068000AFEFB0E080E090E0F901E80FF91FE491EE
:10069000ED9301961817C1F708C0912FD901EFEF1C
:1006A000F0E08D9181939150E1F71150812F90E00E
:1006B0001F5F0196820F931F909319018093180179
:1006C0008FEF90E0612F40D0612F6C5F6C3041F074
:1006D0008FEF80936B0004C08FEF80936B006EE10F
:1006E00060936A0094E186B3887131F49150D9F730
:1006F00010921B011092150110E0992309F411E0EA
:1007000080916F00811739F0112319F4F8949FD16B
:10071000789410936F00DF91CF911F910895A82FC7
:10072000B92F80E090E041E050EA60956F5F58F4A7
:100730002D9138EF82279795879510F0842795277C
:100740003F5FC8F3F3CF0895EADF8D939D9308953B
:10075000A6E088279927AA9569F00197E1F3B39954
:10076000FCCFB39BFECF81E09927A6B3019611F091
:10077000A871D9F70895CF93CFB7CF93C395B39B03
:10078000E9F7B39B0BC0B39B09C0B39B07C0B39BF6
:1007900005C0B39B03C0B39B01C0D8C00F92DF93C9
:1007A000C0911701DD27C25EDE4F012EB39B03C04F
:1007B000DF910F90E6CF2F930F931F934F932FEF5F
:1007C0004F6F06B303FB20F95F933F9350E03BE08C
:1007D00065C016B30126502953FDC89556B30127AD
:1007E00003FB25F92F7306B3B1F05027102713FB35
:1007F00026F906B22230F0F000C016B3012703FB41
:1008000027F90126502906B22430E8F54F772068F1
:1008100016B30000F6CF50274F7D206206B2102F8E
:10082000000000C006B300265029102713FB26F94C
:1008300006B2E2CF4F7B06B3206400C0DACF0126B8
:100840005029187106B269F14E7F2160012F16B34D
:1008500028C0002650294D7F06B22260102F29C0E3
:10086000012650294B7F06B22460012F2DC016B3FC
:1008700001265029477F2860000006B22EC04F7E17
:1008800006B3206130C0422706B3499300265029A1
:10089000102706B24FEF13FB20F9297F16B379F228
:1008A000187159F10126502906B2012703FB21F9DD
:1008B000237F06B371F2002650293150D0F006B2E2
:1008C000102713FB22F9277E16B351F20126502977
:1008D000012703FB06B223F92F7C49F2000006B37F
:1008E000102713FB24F90026502906B22F7939F27C
:1008F00070CF10E21ABF00271CC03B503195C31BBC
:10090000D04010E21ABF0881033C21F10B3411F1F1
:10091000209115011981110F1213EDCF4A81441F47
:10092000093669F10D3211F0013E29F74F7009F0D7
:10093000042F00931C013F915F914F911F910F91E4
:100940002F91DF910F90CAB7C5FD18CFCF91CFBFC0
:10095000CF91189520911C01222369F310911A015F
:100960001123D1F53430D2F130931A0120931601BE
:10097000109117013BE0311B309317012FC00091FC
:100980001A0101304CF50AE54F7049F430916A00C4
:1009900034FD25C000936A00CEEFD0E024C0433080
:1009A00049F03091090134FD1AC000930901CAE0F1
:1009B000D1E019C03091340134FD11C000933401ED
:1009C000C5E3D1E010C0052710E000C021C0052715
:1009D00010E0C89508BB14C03AE501C032ED032E03
:1009E000C0E0D0E032E017B31861C39A08B317BB78
:1009F00058E120E84FEF20FF052708BB2795179502
:100A00001C3F28F700004552B0F720FF0527279527
:100A100008BB17951C3FB8F629913A9561F7077EF8
:100A200010911B01110F08BBC250D04011F0109360
:100A3000150110E21ABF086017B3177E402F477EDA
:100A400054E05A95F1F708BB17BB48BB74CFEF923F
:100A5000FF920F931F93CF93DF9380E8F82E00E06F
:100A6000C0E0D0E0102F1F0D11BF72DE9C0189E0A5
:100A7000243338070CF0102FF6942196C830D10596
:100A800011F0012FEFCF115011BF1F5F7901C12F5E
:100A9000D0E0219610C05CDE8453994097FF03C0DC
:100AA000909581959F4F8E159F0514F411B77C0189
:100AB00081B78F5F81BF81B790E0C817D9075CF716
:100AC00011BFDF91CF911F910F91FF90EF9008958B
:100AD000A1E21A2EAA1BBB1BFD010DC0AA1FBB1F42
:100AE000EE1FFF1FA217B307E407F50720F0A21BB4
:100AF000B30BE40BF50B661F771F881F991F1A9421
:100B000069F760957095809590959B01AC01BD014A
:080B1000CF010895F894FFCF16
:0C0B1800A12000000000020003005AFFB2
:00000001FF
