:1000000012C02CC02BC02AC029C028C027C026C0BF
:1000100025C024C023C022C021C020C01FC01EC0D4
:100020001DC01CC01BC011241FBECFE5D4E0DEBF25
:10003000CDBF10E0A0E6B0E0E4E8F2E002C0059039
:100040000D92AC38B107D9F710E0ACE8B0E001C0D0
:100050001D92A439B107E1F7F2D012C1D1CF20EF40
:1000600030E004C0F9013197F1F701970097D1F71B
:1000700008958B3038F5E82FF0E0EE0FFF1FEE0FFC
:10008000FF1FDF01A05ABF4F2C91332727FD30956A
:10009000220F331F11968C911197992787FD909508
:1000A000280F391F220F331FEE59FF4F80819927E8
:1000B00087FD9095280F391F220F331F13968C91BF
:1000C000820F82BB08950F931F93CF93DF93EB01B1
:1000D00020E030E0A1E0682F70E000EF10E032C0D7
:1000E000AA0F8A2F90E09B01042E02C0220F331F1B
:1000F0000A94E2F782239323892BC9F020813327C6
:1001000027FD3095220F331F8181992787FD909518
:10011000280F391F220F331F8281992787FD909561
:10012000280F391F220F331F8381820F82BB4F5F3D
:100130005F4F34964830510599F6C8010197F1F7A1
:1001400029E030E02C173D0728F4E0E6F0E040E03D
:1001500050E0C6CFDF91CF911F910F9108950F937B
:100160001F93CF93DF938B01BC01660F771FA0E62F
:10017000B0E041E050E0C0EFD0E0440F551FCA01AD
:1001800086239723892B39F12C91332727FD30952E
:10019000220F331F11968C911197992787FD909507
:1001A000280F391F220F331F12968C91129799270F
:1001B00087FD9095280F391F220F331F13968C91BE
:1001C0001397820F82BBC80104C0FE013197F1F77B
:1001D00001970097D1F7149680E0A838B80769F620
:1001E000DF91CF911F910F91089521E030E002C07F
:1001F000220F331F6A95E2F7322F309540E050E02E
:10020000682F70E0A0EFB0E016C082B3822B82BBF3
:1002100088EE93E0FD013197F1F70197D9F782B3AA
:10022000832382BB88EE93E0FD013197F1F70197BC
:10023000D9F74F5F5F4F461757073CF308958FEF8D
:1002400081BB12BA10928D0010928C0089E190E06F
:1002500090938F0080938E008FEB93E090939100AA
:100260008093900089E08093920081E080939300D6
:10027000809190009091910061E070E070DFF8CF84
:04028000F894FFCF20
:100284000000000000000100000000010000010166
:100294000001000000010100000100010001010152
:0C02A40001000000010001000100000149
:00000001FF
