:1000000012C02CC02BC02AC029C028C027C026C0BF
:1000100025C024C023C022C021C020C01FC01EC0D4
:100020001DC01CC01BC011241FBECFE5D4E0DEBF25
:10003000CDBF10E0A0E6B0E0E0ECF1E002C005903A
:100040000D92AC38B107D9F710E0ACE8B0E001C0D0
:100050001D92A439B107E1F790D0B0C0D1CF20EF05
:1000600030E004C0F9013197F1F701970097D1F71B
:1000700008958B3038F5E82FF0E0EE0FFF1FEE0FFC
:10008000FF1FDF01A05ABF4F2C91332727FD30956A
:10009000220F331F11968C911197992787FD909508
:1000A000280F391F220F331FEE59FF4F80819927E8
:1000B00087FD9095280F391F220F331F13968C91BF
:1000C000820F82BB08950F931F93CF93DF938B0111
:1000D000BC01660F771FA0E6B0E041E050E0C0EF42
:1000E000D0E0440F551FCA0186239723892B39F18D
:1000F0002C91332727FD3095220F331F11968C91B9
:100100001197992787FD9095280F391F220F331FCC
:1001100012968C911297992787FD9095280F391F79
:10012000220F331F13968C911397820F82BBC80145
:1001300004C0FE013197F1F701970097D1F71496AB
:1001400080E0A838B80769F6DF91CF911F910F9131
:1001500008958FEF81BB12BA0895FC0111821082BD
:1001600089E190E0938382838FEB93E0958384838E
:1001700089E0868381E0878308958FEF81BB12BA7F
:1001800010928D0010928C0089E190E090938F0086
:1001900080938E008FEB93E090939100809390007A
:1001A00089E08093920081E0809393008091900099
:1001B0009091910061E070E086DFF8CFF894FFCF76
:1001C000000000000000010000000001000001012B
:1001D0000001000000010100000100010001010117
:0C01E0000100000001000100010000010E
:00000001FF
