:100000000AC023C022C021C020C01FC01EC01EC005
:100010001CC030C01AC011241FBECFEDCDBF10E0F0
:10002000A0E6B0E0E2E8F7E003C0C89531960D9293
:10003000AE38B107D1F710E0AEE8B0E001C01D92D4
:10004000A53AB107E1F72AD19AC3DACF1F920F92EE
:100050000FB60F9211248F93F8948CB18093900077
:1000600081E080938E0078948F910F900FBE0F9057
:100070001F9018951F920F920FB60F9211248F9315
:100080009F93EF93FF938091600090916100E82F20
:10009000F92FEF56FF4FE081EE2319F0ECB90196EE
:1000A00003C0539881E090E09093610080936000DA
:1000B000FF91EF919F918F910F900FBE0F901F9026
:1000C000189520E030E003C0EC932F5F3F4FE82FFE
:1000D000F92FE20FF31FE081A22FB32FAF56BF4FCE
:1000E000EE2391F71C92539A809191008CB9089558
:1000F00084309105F1F0853091054CF48230910502
:1001000099F08330910594F40197F1F409C080319E
:100110009105A9F080329105A9F00897A9F40CC0C7
:10012000B89AB99AC098C198C09804C0C098C19AAA
:100130000895C09AC1980895C298C3980895C29826
:10014000C39A0895C29AC398089520E837E005C07D
:10015000E22FF32F3197F1F701970097C9F7089530
:1001600040E050E090E060E877E016C0969A2CE31B
:1001700030E0E62FF72F3197F1F721503040C9F7E3
:1001800096982CE330E0E62FF72F3197F1F72150C6
:100190003040C9F74F5F5F4F481759073CF3089548
:1001A000CF92DF92EF92FF920F931F93CF93DF9343
:1001B000F62EC0E0D0E0C82EDD2400E817E012C023
:1001C00083E090E095DF80918F0090E005C0E02F04
:1001D000F12F3197F1F701970097C9F782E090E08E
:1001E00087DF2196CC15DD055CF3C0E0D0E0EF2C75
:1001F000FF2400E817E012C080E190E079DF8091F1
:100200008F0090E005C0E02FF12F3197F1F70197B3
:100210000097C9F782E090E06BDF2196CE15DF05ED
:100220005CF3C0E0D0E000E817E012C084E090E0AA
:100230005FDF80918F0090E005C0E02FF12F3197B4
:10024000F1F701970097C9F782E090E051DF21961E
:10025000CC15DD055CF3C0E0D0E000E817E012C08B
:1002600080E290E045DF80918F0090E005C0E02FB4
:10027000F12F3197F1F701970097C9F782E090E0ED
:1002800037DF2196CE15DF055CF3DF91CF911F910B
:100290000F91FF90EF90DF90CF900895DF92EF9253
:1002A000FF920F931F93CF93DF938AE080938F0089
:1002B00081E090E01DDF8FEF81BB83E389B980EDA2
:1002C0008AB9789480E090E002C0EC930196E82F20
:1002D000F92FED58FF4FE081A82FB92FAF56BF4F30
:1002E000EE2399F71C92539A809191008CB980E08B
:1002F00090E002C0EC930196E82FF92FEE59FF4FE2
:10030000E081A82FB92FAF56BF4FEE2399F71C926B
:10031000539A809191008CB980E090E002C0EC93F8
:100320000196E82FF92FED58FF4FE081A82FB92F44
:10033000AF56BF4FEE2399F71C92539A80919100CC
:100340008CB9C0E8D7E015E00AE027E0F22E94E18E
:10035000E92E82E3D82E80918E008823E1F38091EC
:100360009000863609F440C18736FCF4853309F4E1
:10037000E2C1863374F4823309F483C183331CF4FD
:10038000813381F553C1833309F4A6C1843351F518
:10039000CEC1873309F4D5C187330CF4CFC188337C
:1003A00009F4D2C18933F1F4D2C18B3609F494C077
:1003B0008C3664F4883609F4F5C088360CF4AEC087
:1003C000893609F467C08A3669F452C0843709F463
:1003D000C7C085371CF48C3629F43BC0883729F018
:1003E0008937E9F080E090E0B7C120E030E0969AEC
:1003F00084E690E0EC2FFD2F3197F1F70197D1F7CC
:10040000969884E690E0EC2FFD2F3197F1F7019755
:10041000D1F72F5F3F4F2630310549F7ADC120E0BE
:1004200030E0969A84E690E0EC2FFD2F3197F1F7BB
:100430000197D1F7969884E690E0EC2FFD2F319745
:10044000F1F70197D1F72F5F3F4F2330310549F77F
:1004500093C183E090E04CDE80918F0090E005C076
:10046000EC2FFD2F3197F1F701970097C9F70EC0D8
:1004700084E090E03DDE80918F0090E005C0EC2F9D
:10048000FD2F3197F1F701970097C9F782E090E0CF
:100490002FDE72C180E190E02BDE80918F0090E032
:1004A00005C0EC2FFD2F3197F1F701970097C9F7A1
:1004B00088E090E01DDE80E090E002C0EC930196C1
:1004C000E82FF92FEA58FF4FE081A82FB92FAF5638
:1004D000BF4FEE2399F74BC180E290E009DE809197
:1004E0008F0090E005C0EC2FFD2F3197F1F70197B9
:1004F0000097C9F788E090E0FBDD80E090E002C063
:10050000EC930196E82FF92FEA58FF4FE081A82FCE
:10051000B92FAF56BF4FEE2399F729C184E090E081
:10052000E7DD80918F0090E005C0EC2FFD2F319723
:10053000F1F701970097C9F782E090E0D9DD80E0FC
:1005400090E002C0EC930196E82FF92FEA58FF4F94
:10055000E081A82FB92FAF56BF4FEE2399F707C1FF
:1005600083E090E0C5DD80918F0090E005C0EC2F26
:10057000FD2F3197F1F701970097C9F782E090E0DE
:10058000B7DD80E090E002C0EC930196E82FF92FF0
:10059000EA58FF4FE081A82FB92FAF56BF4FEE2387
:1005A00099F7E5C080E290E0A3DD80918F0090E0B4
:1005B00005C0EC2FFD2F3197F1F701970097C9F790
:1005C00088E090E095DD80E090E002C0EC93019639
:1005D000E82FF92FEA58FF4FE081A82FB92FAF5627
:1005E000BF4FEE2399F7C3C080E190E081DD809199
:1005F0008F0090E005C0EC2FFD2F3197F1F70197A8
:100600000097C9F788E090E073DD80E090E002C0D9
:10061000EC930196E82FF92FEA58FF4FE081A82FBD
:10062000B92FAF56BF4FEE2399F7A1C084E090E0F9
:100630005FDD8C2F9D2F0197F1F78C2F9D2F019758
:10064000F1F78C2F9D2F0197F1F78C2F9D2F01979C
:10065000F1F78C2F9D2F0197F1F782E090E048DDB4
:1006600080E090E002C0EC930196E82FF92FEA5861
:10067000FF4FE081A82FB92FAF56BF4FEE2399F758
:1006800076C083E090E034DD8C2F9D2F0197F1F749
:100690008C2F9D2F0197F1F78C2F9D2F0197F1F74C
:1006A0008C2F9D2F0197F1F78C2F9D2F0197F1F73C
:1006B00082E090E01DDD80E090E002C0EC930196C6
:1006C000E82FF92FEA58FF4FE081A82FB92FAF5636
:1006D000BF4FEE2399F74BC080E290E009DD8C2FED
:1006E0009D2F0197F1F78C2F9D2F0197F1F78C2FFC
:1006F0009D2F0197F1F78C2F9D2F0197F1F78C2FEC
:100700009D2F0197F1F788E090E0F2DC80E090E027
:1007100002C0EC930196E82FF92FEA58FF4FE081D1
:10072000A82FB92FAF56BF4FEE2399F720C08AE00C
:100730006AE036DD21C010938F001EC0F0928F005A
:100740001BC000938F0018C0E0928F0015C0D0929C
:100750008F0012C0EC930196E82FF92FE358FF4F5A
:10076000E081A82FB92FAF56BF4FEE2399F71C9207
:10077000539A809191008CB910928E00ECCDF89430
:02078000FFCFA9
:1007820001000A0D4D494E495F504C4F5445525F8E
:100792003031000A0D000A0D4F4B0A0D000D0A43BD
:0E07A2004D445F4E4F54494D504C0A0D00001F
:00000001FF
