:1000000040C064C063C062C061C060C05FC05EC009
:100010005DC0C8C05BC01AC359C058C057C056C0E5
:1000200055C054C053C000000000370034003100F8
:1000300000000000380035003200000000003600EB
:100040003300300004040404040404040202020225
:10005000020203030303030301020408102040808B
:100060000102040810200102040810200000000012
:100070000000000000030405000000000000000074
:10008000610411241FBECFE5D4E0DEBFCDBF10E078
:10009000A0E6B0E0EAEDFAE002C005900D92A238C9
:1000A000B107D9F711E0A2E8B0E001C01D92A63275
:1000B000B107E1F710E0C2E8D0E003C02297FE01EB
:1000C00006D5C038D107D1F769D005C599CFAF9211
:1000D000BF92CF92DF92EF92FF920F931F9380E037
:1000E000F2D0909383008093820000D000D0AA27A2
:1000F00097FDA095BA2F2FEF30E040E050E0EDB72C
:10010000FEB72183328343835483BC01CD0120E0B9
:1001100030E040E050E0EFEFEE2EE3E0FE2E012D68
:10012000112DAA24BB24650106D49B01AC01709358
:100130008500609384000F900F900F900F9089E0DE
:10014000B901D6D003E111E0C80160E670E08ED1BC
:100150006091820070918300C80163D2C8016AE691
:1001600070E084D16091840070918500C80160D2F4
:100170006AE070E080E090E05DD01F910F91FF9009
:10018000EF90DF90CF90BF90AF90089583E191E022
:1001900040E855E260E070E094D2089575D0F6DF53
:1001A00096DFFECF1F920F920FB60F9211242F935E
:1001B0003F938F939F93AF93BF9380918A009091C9
:1001C0008B00A0918C00B0918D0030918E00019633
:1001D000A11DB11D232F2D5F2D3720F02D57019626
:1001E000A11DB11D20938E0080938A0090938B00F7
:1001F000A0938C00B0938D00809186009091870031
:10020000A0918800B09189000196A11DB11D809335
:10021000860090938700A0938800B0938900BF91D7
:10022000AF919F918F913F912F910F900FBE0F90A3
:100230001F901895EF92FF920F931F937B018C01F3
:100240008FB7F89440918A0050918B0060918C0098
:1002500070918D008FBF2FB7F89480918A00909194
:100260008B00A0918C00B0918D002FBF841B950B4B
:10027000A60BB70BE816F9060A071B0760F71F91D4
:100280000F91FF90EF900895789483B7826083BFB9
:1002900083B7816083BF89B7816089BF8EB5826073
:1002A0008EBD8EB581608EBD8FB581608FBD85B5E9
:1002B000846085BD85B5806485BD329A319A309A57
:1002C000379A1AB808958F70909176009295990F89
:1002D000990F907C982B97B9369A3699FECF24B116
:1002E00045B1942F80E030E0282B392BC9010895C7
:1002F0001F93CF93DF93182FEB0161E029D0E12FFB
:10030000F0E0E459FF4F8491833031F48FB5806879
:100310008FBDDBBDCABD18C0843031F48FB580629B
:100320008FBDD9BDC8BD10C0853029F485B58062A8
:1003300085BDC3BD09C0C038D1051CF4812F60E064
:1003400002C0812F61E024D0DF91CF911F910895E9
:10035000282F30E0C901885A9F4FFC0194912C5BF3
:100360003F4FF9018491882391F0E82FF0E0EE0FE0
:10037000FF1FEA5DFF4FA591B491662329F48C918C
:10038000909589238C9308958C91892B8C93089553
:10039000482F50E0CA0184599F4FFC012491CA01A3
:1003A000885A9F4FFC0194914C5B5F4FFA01349146
:1003B000332321F1222381F0233019F48FB58F7775
:1003C00004C0243021F48FB58F7D8FBD05C025304A
:1003D00019F485B58F7D85BDE32FF0E0EE0FFF1F8B
:1003E000E05DFF4FA591B491662329F48C9190951F
:1003F00089238C9308958C91892B8C9308950F9366
:100400001F93CF93DF938C01EB0109C02196D80194
:10041000ED91FC910190F081E02DC8010995688172
:100420006623A1F7DF91CF911F910F910895EF926D
:10043000FF920F931F93CF93DF938C017B01EA010F
:100440000CC0D7016D917D01D801ED91FC91019017
:10045000F081E02DC80109952197209791F7DF9150
:10046000CF911F910F91FF90EF900895DC01ED91D6
:10047000FC910280F381E02D099508950F931F935D
:100480008C01DC01ED91FC910190F081E02D6DE09B
:100490000995D801ED91FC910190F081E02DC80102
:1004A0006AE009951F910F9108952F923F924F9204
:1004B0005F926F927F928F929F92AF92BF92CF92F4
:1004C000DF92EF92FF920F931F93DF93CF93CDB7FD
:1004D000DEB7A0970FB6F894DEBF0FBECDBF1C01EC
:1004E0006A017B01411551056105710549F4DC0183
:1004F000ED91FC910190F081E02D60E3099552C0EF
:10050000882499245401422E55246624772401E03E
:1005100010E00C0F1D1F080D191DC701B601A30126
:10052000920182D2F80160830894811C911CA11C65
:10053000B11CC701B601A301920176D2C901DA014B
:100540006C017D01C114D104E104F10401F781E0E3
:10055000E82EF12CEC0EFD1EE80CF91C3E0108946F
:10056000611C711CD501C4010197A109B1096C017D
:10057000C818D90814C0F601EE0DFF1D60816A305D
:1005800010F4605D01C0695CD101ED91FC910190B6
:10059000F081E02DC10109950894E108F1086E147D
:1005A0007F0449F7A0960FB6F894DEBF0FBECDBF0B
:1005B000CF91DF911F910F91FF90EF90DF90CF903F
:1005C000BF90AF909F908F907F906F905F904F9073
:1005D0003F902F900895EF92FF920F931F93CF9328
:1005E000DF93EC017A018B0177FF0FC0E881F9817D
:1005F0000190F081E02D6DE2099510950095F09441
:10060000E094E11CF11C011D111DCE01B801A701F0
:100610002AE04BDFDF91CF911F910F91FF90EF9078
:100620000895AB01662757FD6095762FD4DF0895B6
:100630000F931F938C01AB01662757FD6095762FB2
:10064000CADFC8011BDF1F910F9108951F920F92FF
:100650000FB60F9211242F933F934F935F936F9395
:100660007F938F939F93AF93BF93EF93FF934CB17F
:10067000E0910F01F0911001CF01019660E870E068
:10068000C0D19C0180911101909112012817390766
:1006900039F0E157FF4F40833093100120930F0151
:1006A000FF91EF91BF91AF919F918F917F916F914A
:1006B0005F914F913F912F910F900FBE0F901F9020
:1006C00018955F926F927F928F929F92AF92BF9296
:1006D000CF92DF92EF92FF920F931F93CF93DF930E
:1006E000EC013A014B01413482E458078FE068077E
:1006F00080E078070CF075C060E874E88EE190E067
:10070000A4019301B3D12150304040405040CA0170
:10071000B90122E030E040E050E0A8D159016A017F
:10072000A6019501209530954095509594E0220FB3
:10073000331F441F551F9A95D1F760E074E284EF90
:1007400090E094D1CA01B9012FEF30E040E050E0D1
:1007500039D1A40193018AD1C90181509F4F181644
:1007600019061CF4522E5A9403C055245394521A5D
:1007700060E079E08DE390E0A401930177D121500E
:10078000304040405040CA01B90122E030E040E032
:1007900050E06CD1209530954095509583E0220F24
:1007A000331F441F551F8A95D1F760E074E284EF30
:1007B00090E05CD1CA01B9012FEF30E040E050E099
:1007C00001D1A401930152D1C90181509F4F181644
:1007D00019061CF4822F815002C081E0821B85150E
:1007E000F0F4E885F98581E090E00A8802C0880F7E
:1007F000991F0A94E2F7808360E079E08DE390E04E
:10080000A401930133D12150304040405040CA01EF
:10081000B90122E030E040E050E028D104C0E88592
:10082000F98510829501EC81FD813083EE81FF8195
:100830002083EA85FB85208141E050E0CA010E84D7
:1008400002C0880F991F0A94E2F7282B2083EA85BB
:10085000FB852081CA010F8402C0880F991F0A946A
:10086000E2F7282B2083EA85FB858081088802C077
:10087000440F551F0A94E2F7842B8083DF91CF91B8
:100880001F910F91FF90EF90DF90CF90BF90AF90AE
:100890009F908F907F906F905F900895FC01A0854E
:1008A000B18521898C9190E0022E02C095958795A3
:1008B0000A94E2F780FFF6CF0484F585E02D60838B
:1008C00008958BE790E090931401809313018FE8D3
:1008D00090E0909316018093150180E490E090934E
:1008E00018018093170189E290E090931A01809398
:1008F00019018BE290E090931C0180931B018AE226
:1009000090E090931E0180931D018CE290E0909303
:10091000200180931F0184E08093210183E0809374
:10092000220187E08093230185E08093240181E008
:100930008093250108952F923F924F925F926F927C
:100940007F928F929F92AF92BF92CF92DF92EF925F
:10095000FF920F931F93DF93CF93CDB7DEB73B0189
:100960004C0119012A016D897E898F89988D6A1938
:100970007B098C099D09621A730A840A950AA401ED
:10098000930120D0E218F30804091509A801970182
:100990006DD02A0D3B1D4C1D5D1DB901CA01CF91C3
:1009A000DF911F910F91FF90EF90DF90CF90BF905C
:1009B000AF909F908F907F906F905F904F903F90FF
:1009C0002F900895629FD001739FF001829FE00DE8
:1009D000F11D649FE00DF11D929FF00D839FF00DBE
:1009E000749FF00D659FF00D9927729FB00DE11D6A
:1009F000F91F639FB00DE11DF91FBD01CF01112447
:100A0000089597FB092E07260AD077FD04D049D018
:100A100006D000201AF4709561957F4F0895F6F77F
:100A2000909581959F4F0895A1E21A2EAA1BBB1B9A
:100A3000FD010DC0AA1FBB1FEE1FFF1FA217B307AA
:100A4000E407F50720F0A21BB30BE40BF50B661FC0
:100A5000771F881F991F1A9469F760957095809584
:100A600090959B01AC01BD01CF01089597FB092E24
:100A700005260ED057FD04D0D7DF0AD0001C38F46D
:100A800050954095309521953F4F4F4F5F4F0895BA
:100A9000F6F790958095709561957F4F8F4F9F4F9A
:100AA0000895AA1BBB1B51E107C0AA1FBB1FA617B5
:100AB000B70710F0A61BB70B881F991F5A95A9F707
:100AC00080959095BC01CD010895EE0FFF1F059014
:0A0AD000F491E02D0994F894FFCF93
:100ADA0073656E736F72203D200009206F75747004
:100AEA007574203D200001000000004E04FF01172C
:020AFA000200F8
:00000001FF
