:2000000012C02CC02BC02AC029C028C027C026C025C024C023C022C021C020C01FC01EC0A3
:200020001DC01CC01BC011241FBECFE5D4E0DEBFCDBF10E0A0E6B0E0E0ECF1E002C005908F
:200040000D92AC38B107D9F710E0ACE8B0E001C01D92AC38B107E1F760D0B0C0D1CF20EF4E
:2000600030E004C0F9013197F1F701970097D1F708958B3038F5E82FF0E0EE0FFF1FEE0F87
:20008000FF1FDF01A05ABF4F2C91332727FD3095220F331F11968C911197992787FD909502
:2000A000280F391F220F331FEE59FF4F8081992787FD9095280F391F220F331F13968C9157
:2000C000820F82BB089521E030E002C0220F331F6A95E2F7322F309540E050E0682F70E02A
:2000E000A0EFB0E016C082B3822B82BB88EE93E0FD013197F1F70197D9F782B3832382BBD5
:2001000088EE93E0FD013197F1F70197D9F74F5F5F4F461757073CF308951F938FEF81BB91
:2001200012BA40E050E060EF70E019E012BA84E690E0FB013197F1F70197D9F712BB84E61A
:2001400090E0FB013197F1F70197D9F74B30510514F040E050E0E42F4B3030F5F0E0EE0F76
:20016000FF1FEE0FFF1FDF01A05ABF4F2C91332727FD3095220F331F11968C9111979927AF
:2001800087FD9095280F391F220F331FEE59FF4F8081992787FD9095280F391F220F331F93
:2001A00013968C91820F82BB88EE93E0FB013197F1F70197D9F74F5F5F4FB8CFF894FFCF71
:2001C000000000000000010000000001000001010001000000010100000100010001010113
:0C01E0000100000001000100010000010E
:00000001FF
