:1000000058C005C271C070C06FC06EC06DC06CC0FA
:100010006BC06AC069C068C067C066C065C064C0A4
:1000200063C062C061C00403090422037700770043
:1000300077002E0072006500630075007200730087
:1000400069006F006E002E006A00700010035500FA
:10005000530042002D003200330032001201100123
:1000600002000008C016E1050001010200010902BA
:100070004300020100803209040000010202010075
:1000800005240010010424020205240600010524B1
:10009000010301070583030800FF09040100020AA8
:1000A00000000007050102080000070581020800A2
:1000B000000011241FBECFE5D4E0DEBFCDBF10E0AD
:1000C000A0E6B0E0E6E3FAE002C005900D92AC369F
:1000D000B107D9F712E0ACE6B0E001C01D92AC3335
:1000E000B107E1F7F0D3A5C48BCF85B7826085BF98
:1000F0008BB780648BBF8BE4809381008093AC00CE
:100100008AE5809380008093AB0008951F93DC0103
:10011000162F8091AB0084FF07C08091AC0098E857
:1001200089278093AC0003C08AE58093AB00912FB0
:10013000EDEAF0E08D91819391501916DCF38DEA90
:1001400090E0612F60D11C5F1093AB001F91089568
:100150001F93DC01162F8091800084FF07C08091DF
:10016000810098E889278093810003C08AE5809305
:100170008000912FE2E8F0E08D9181939150191663
:10018000DCF382E890E0612F3ED11C5F1093800089
:100190001F9108951F93CF93DF9360919100635057
:1001A00067FDB2C080918E00CCE0D0E0C81BD109C1
:1001B000CB56DF4F80918D00803118F4CE0164D38F
:1001C0009DC08D3209F08AC0683009F097C083EC79
:1001D000809375008AE58093600010926C0088819E
:1001E000807621F0CE0119D3282F65C09A81109214
:1001F0007E008981882321F410927F0022E054C080
:10020000853019F4909392004EC08630B1F58B8101
:10021000813041F48CE590E09093900080938F00C2
:1002200022E127C0823021F4CE01E2D2282F21C062
:100230008330F1F4992341F486E290E090939000AA
:1002400080938F0024E015C0913041F48AE290E061
:100250009093900080938F0022E20BC0923041F483
:100260008CE490E09093900080938F0020E101C097
:1002700020E080E480936C001EC0883021F421E0EF
:1002800084E990E013C0893019F4909394000BC076
:100290008A3011F421E008C08B3029F48BE480937C
:1002A00081008093AC0020E08EE790E09093900076
:1002B00080938F0009C02F3F39F4888187FD2E81FC
:1002C00080E880936C0006C08F81882319F48E81AA
:1002D000821708F0822F8093610010C080916C001B
:1002E00087FF0CC0CE014CD38F3F21F48EE1809369
:1002F000600004C0882311F0109261008091910089
:10030000181614F4109291008091600084FF58C078
:10031000809161008F3F09F453C0182F893008F095
:1003200018E0811B809361008091750098E889270F
:1003300080937500112391F180916C0087FF08C0B4
:1003400086E790E0612F88D2182F893098F526C073
:1003500020918F003091900086FF0DC0A6E7B0E09D
:1003600080E090E0F901E80FF91FE491ED93019628
:100370001817C1F708C0912FD901E6E7F0E08D9179
:1003800081939150E1F71150812F90E01F5F01960A
:10039000820F931F9093900080938F0086E790E0E8
:1003A000612F31D0612F6C5F6C3041F08FEF809303
:1003B000610004C08FEF809361006EE16093600084
:1003C00094E180B38C7031F49150D9F7109292007F
:1003D00010928C00DF91CF911F910895A82FB92F13
:1003E00080E090E041E050EA60956F5F58F42D9115
:1003F00038EF82279795879510F0842795273F5FE0
:10040000C8F3F3CF0895EADF8D939D930895CF93BA
:10041000CFB7CF93C395839BE9F7839B09C0839B99
:1004200007C0839B05C0839B03C0839B01C0A6C0FC
:10043000DF93C0918E00DD27CB56DF4F839B02C038
:10044000DF91EBCF2F930F931F9300B32FEF03FB9D
:1004500020F94F933F9310B34FEF012703FB21F98E
:100460003BE031C04E7F012F10B3216028C0102F18
:100470004D7F2260000000B329C04B7F2460012F14
:10048000000010B32BC010B3477F28602AC04F7EF6
:1004900000B320612CC04F7D10B320622FC04F7B72
:1004A00000B3206432C0422700B349934FEF0000ED
:1004B000102713FB20F910B31C70C9F1297F91F2AA
:1004C000012703FB21F900B3237F89F2315058F152
:1004D000102713FB22F910B3277E79F2012703FBC3
:1004E00023F92F7C81F200B3102713FB24F92F7915
:1004F00071F200C010B3012703FB25F92F7359F2E5
:1005000000C000B3102713FB26F9223040F200C0D0
:1005100010B3012703FB27F9243028F64F77206812
:1005200010B30000F9CF10E41ABF00271CC03B50E5
:100530003195C31BD04010E41ABF0881033C11F170
:100540000B3401F120918C001981110F1213EDCFA2
:100550004A81441F093659F10D3211F0013E29F745
:100560004F7009F0042F009393003F914F911F911A
:100570000F912F91DF91CAB7C6FD4CCFCF91CFBF5E
:10058000CF91189520919300222379F31091910037
:100590001123C1F53430C2F13093910020938D00C6
:1005A00010918E003BE0311B30938E002DC00091E6
:1005B000910001303CF50AE54F7049F4309160003C
:1005C00034FD24C000936000C5E7D0E023C0433071
:1005D00049F03091800034FD19C000938000C1E8DB
:1005E000D0E018C03091AB0034FD10C00093AB00D8
:1005F000CCEAD0E00FC02795A8F45150A9F4220FFF
:100600000000F9CF4AE503C042ED01C0432FC4E129
:10061000D0E032E011B31C60939A11BB02B320E426
:100620001CE05F93012756E002BB279520F4515050
:1006300021F4220FF9CF012756E000003B5A02BBFC
:10064000D0F2279528F4515029F4220F0000F9CF59
:10065000012756E0279502BB20F4515021F4220FC8
:10066000F9CF012756E02991332302BB21F6037FFE
:1006700010919200110FC651D04002BB11F010939F
:100680008C0010E41ABF086011B3137F402F437F22
:100690005F9100C000C002BB11BB42BB66CFBF92DE
:1006A000CF92DF92EF92FF920F931F936B017C0129
:1006B000B42E122F63E0CC0CDD1CEE1CFF1C6A95DF
:1006C000D1F760E07BE187EB90E0A70196018FD145
:1006D0002150304040405040599A1AB881E0B81635
:1006E00011F440EB04C04B2D4295407F4068802FB1
:1006F00090E00597880F991F1695110F110F110F94
:10070000182B412B40BD29B930BD88E18AB91F9112
:100710000F91FF90EF90DF90CF90BF9008951F93BF
:100720005D9B1CC09091390220913A029217B1F062
:10073000E22FF0E0E854FE4F80818CB9E22FEF5FAA
:10074000EF77E0933A028091910087FF07C0909580
:100750009E0F9F77993010F0109291008091800049
:1007600084FF30C02091B70190913802291729F4F5
:1007700080913B02882319F425C0291718F0622FB5
:10078000691B02C0692F6195162F693008F018E0C7
:10079000892F90E089549F4F612FDADC90913802C5
:1007A000910F90933802183019F080E090E008C063
:1007B00020E08091B701891321E081E02827822F72
:1007C00080933B025F9B12C08BB12CB18C7171F492
:1007D000E091B7019E2F9F5F80913802981731F00A
:1007E000F0E0E954FF4F20839093B7011F910895E3
:1007F000FC018381813049F48CE590E09093900076
:1008000080938F0080915C0008958EE690E0909335
:10081000900080938F0083E40895FC012081822F53
:1008200080768032B9F49181892F8052823010F421
:100830008FEF0895923239F480916D00882319F476
:1008400082E080936D0027FD05C081E080933B022C
:1008500080E0089580E00895FC018091710080831C
:1008600080917200818380917300828380917400F3
:10087000838380916E00848380916F008583809153
:100880007000868387E00895DC0190913A020EC0E3
:10089000EF5F2E2F2F77E150291739F0F0E0E85461
:1008A000FE4F8D918083209339026150E09139028F
:1008B000662371F791509E1B9F77993018F48FEF44
:1008C0008093910008950F932EE088E190E00FB699
:1008D000F894A89581BD0FBE21BD83EF82BB8CE04B
:1008E00081BB20E048EC5FEAA895CA010197F1F7C7
:1008F0002F5F2431C9F711BA80E895E2A0E0B0E09B
:100900008093710090937200A0937300B093740071
:1009100010926E0010926F0088E08093700060E883
:1009200075E280E090E040E020E008E0B8DE109260
:100930003A021092B7011092380210923902D5DBB8
:1009400010926D0010923B027894A89523DCE7DEAC
:1009500090916D009923C9F38091AB0084FFF5CF8E
:10096000923021F482E690E068E003C08AE690E0ED
:1009700062E0CCDB80916D00815080936D00E5CF0B
:100980000F93FC01808180937100818180937200BC
:10099000828180937300838180937400948190930B
:1009A0006E00858180936F00068100937000833014
:1009B00010F010926F00913011F410926E0060915F
:1009C0007100709172008091730090917400409159
:1009D0006F0020916E0063DE10923A021092B70110
:1009E000109238021092390281E00F910895A1E22D
:1009F0001A2EAA1BBB1BFD010DC0AA1FBB1FEE1F99
:100A0000FF1FA217B307E407F50720F0A21BB30BE3
:100A1000E40BF50B661F771F881F991F1A9469F75F
:100A200060957095809590959B01AC01BD01CF01BB
:060A30000895F894FFCFC9
:0C0A36005AFFA120000000000200030095
:00000001FF
