:100000000C947A000C9433020C9497000C94970093
:100010000C9497000C9497000C9497000C94970004
:100020000C9497000C9497000C9497000C949700F4
:100030000C9497000C9497000C9497000C949700E4
:100040000C9497000C9497000C9497000C949700D4
:100050000C9497000C9497000C9497000C949700C4
:100060000C9497000C949700040309042203770072
:10007000770077002E007200650063007500720043
:10008000730069006F006E002E006A00700010039C
:100090005500530042002D0032003300320012019F
:1000A000100102000008C016E10500010102000174
:1000B000090243000201008032090400000102022B
:1000C0000100052400100104240202052406000199
:1000D0000524010301070583030800FF090401004B
:1000E000020A00000007050102080000070581025E
:1000F0000800000011241FBECFEFD4E0DEBFCDBF4B
:1001000011E0A0E0B1E0E0ECFAE002C005900D9251
:10011000AC30B107D9F712E0ACE0B1E001C01D92FC
:10012000AC3DB107E1F70E94A0040C945E050C946D
:100130000000E9E6F0E0808182608083E89A8BE449
:100140008093210180934C018AE580932001809364
:100150004B0108951F93DC01162F80914B0184FF02
:1001600007C080914C0198E8892780934C0103C017
:100170008AE580934B01912FEDE4F1E08D9181931D
:1001800091501916DCF38DE491E0612F0E942F024B
:100190001C5F10934B011F9108951F93DC01162FD4
:1001A0008091200184FF07C08091210198E8892770
:1001B0008093210103C08AE580932001912FE2E220
:1001C000F1E08D91819391501916DCF382E291E078
:1001D000612F0E942F021C5F109320011F91089530
:1001E0001F93CF93DF9360913101635067FDB6C0D9
:1001F00080912E01CCE0D0E0C81BD109CB5CDE4F52
:1002000080912D01803120F4CE010E948104A0C094
:100210008D3209F08CC0683009F09AC083EC80936D
:1002200015018AE58093000110920C018881807687
:1002300029F0CE010E944A04282F66C09A811092AC
:100240001E018981882321F410921F0122E055C0EC
:10025000853019F4909332014FC08630B9F58B8107
:10026000813041F48EE990E09093300180932F012A
:1002700022E128C0823029F4CE010E943504282FC3
:1002800021C08330F1F4992341F488E690E0909303
:10029000300180932F0124E015C0913041F48CE6A9
:1002A00090E09093300180932F0122E20BC09230B6
:1002B00041F48EE890E09093300180932F0120E18B
:1002C00001C020E080E480930C011EC0883021F43E
:1002D00021E084E391E013C0893019F49093340154
:1002E0000BC08A3011F421E008C08B3029F48BE474
:1002F0008093210180934C0120E08EE191E0909366
:10030000300180932F0109C02F3F39F4888187FD88
:100310002E8180E880930C0106C08F81882319F418
:100320008E81821708F0822F8093010111C0809185
:100330000C0187FF0DC0CE010E9404058F3F21F400
:100340008EE18093000104C0882311F01092010116
:1003500080913101181614F410923101809100013E
:1003600084FF5AC0809101018F3F09F455C0182FB6
:10037000893008F018E0811B8093010180911501FC
:1003800098E8892780931501112399F180910C0138
:1003900087FF09C086E191E0612F0E946904182F50
:1003A0008930A0F526C020912F013091300186FFC1
:1003B0000DC0A6E1B1E080E090E0F901E80FF91F7F
:1003C000E491ED9301961817C1F708C0912FD90158
:1003D000E6E1F1E08D9181939150E1F71150812F89
:1003E00090E01F5F0196820F931F909330018093DE
:1003F0002F0186E191E0612F0E942F02612F6C5F37
:100400006C3041F08FEF8093010104C08FEF809337
:1004100001016EE16093000194E189B18C7031F4C7
:100420009150D9F71092320110922C01DF91CF91A7
:100430001F910895A82FB92F80E090E041E050EA85
:1004400060956F5F58F42D9138EF822797958795C7
:1004500010F0842795273F5FC8F3F3CF0895EADFB4
:100460008D939D930895CF93CFB7CF93C3954B9B17
:10047000E9F74B9B09C04B9B07C04B9B05C04B9BAF
:1004800003C04B9B01C0A6C0DF93C0912E01DD27A6
:10049000CB5CDE4F4B9B02C0DF91EBCF2F930F93D2
:1004A0001F9309B12FEF03FB20F94F933F9319B12D
:1004B0004FEF012703FB21F93BE031C04E7F012FB5
:1004C00019B1216028C0102F4D7F2260000009B1B2
:1004D00029C04B7F2460012F000019B12BC019B136
:1004E000477F28602AC04F7E09B120612CC04F7D14
:1004F00019B120622FC04F7B09B1206432C042275E
:1005000009B149934FEF0000102713FB20F919B1EF
:100510001C70C9F1297F91F2012703FB21F909B170
:10052000237F89F2315058F1102713FB22F919B1BA
:10053000277E79F2012703FB23F92F7C81F209B191
:10054000102713FB24F92F7971F200C019B101278C
:1005500003FB25F92F7359F200C009B1102713FBD3
:1005600026F9223040F200C019B1012703FB27F918
:10057000243028F64F77206819B10000F9CF11E038
:100580001CBB00271CC03B503195C31BD04011E061
:100590001CBB0881033C11F10B3401F120912C01AB
:1005A0001981110F1213EDCF4A81441F093659F1F9
:1005B0000D3211F0013E29F74F7009F0042F00931E
:1005C00033013F914F911F910F912F91DF91CCB348
:1005D000C0FD4CCFCF91CFBFCF9118952091330163
:1005E000222379F3109131011123C1F53430C2F186
:1005F0003093310120932D0110912E013BE0311BEE
:1006000030932E012DC00091310101303CF50AE5F7
:100610004F7049F43091000134FD24C00093000173
:10062000C5E1D1E023C0433049F03091200134FDD1
:1006300019C000932001C1E2D1E018C030914B01F4
:1006400034FD10C000934B01CCE4D1E00FC02795DE
:10065000A8F45150A9F4220F0000F9CF4AE503C0D5
:1006600042ED01C0432FC4E1D0E032E01AB11C607A
:100670005B9A1AB90BB120E41CE05F93012756E0A6
:100680000BB9279520F4515021F4220FF9CF0127FF
:1006900056E000003B5A0BB9D0F2279528F4515090
:1006A00029F4220F0000F9CF012756E027950BB956
:1006B00020F4515021F4220FF9CF012756E029915F
:1006C00033230BB921F6037F10913201110FC6516C
:1006D000D0400BB911F010932C0111E01CBB086045
:1006E0001AB1137F402F437F5F9100C000C00BB948
:1006F0001AB94BB966CFBF92CF92DF92EF92FF92B9
:100700000F931F936B017C01B42E122F63E0CC0C6E
:10071000DD1CEE1CFF1C6A95D1F760E07BE187EBE6
:1007200090E0A70196010E943C05215030404040D6
:1007300050408091C00082608093C0001092C10040
:1007400081E0B81611F440E303C04B2D4295407F81
:10075000802F90E00597880F991F1695110F110FA4
:10076000110F182B412B4093C2002093C4003093EB
:10077000C50088E18093C1001F910F91FF90EF9019
:10078000DF90CF90BF9008951F938091C00085FFA8
:100790001DC09091D9022091DA029217B9F0E22F90
:1007A000F0E0E85AFD4F80818093C600E22FEF5FB2
:1007B000EF77E093DA028091310187FF07C09095CF
:1007C0009E0F9F77993010F0109231018091200197
:1007D00084FF31C0209157029091D802291729F443
:1007E0008091DB02882319F426C0291718F0622FA4
:1007F000691B02C0692F6195162F693008F018E057
:10080000892F90E0895A9E4F612F0E94CD009091D0
:10081000D802910F9093D802183019F080E090E040
:1008200008C020E080915702891321E081E0282749
:10083000822F8093DB028091C00087FF14C08091DB
:10084000C0002091C6008C7171F4E09157029E2F78
:100850009F5F8091D802981731F0F0E0E95AFE4F7F
:100860002083909357021F910895FC01838181306A
:1008700049F48EE990E09093300180932F018091AC
:100880009E00089580EB90E09093300180932F01BB
:1008900083E40895FC012081822F80768032B9F4B0
:1008A0009181892F8052823010F48FEF0895923217
:1008B00039F480910D01882319F482E080930D01B1
:1008C00027FD05C081E08093DB0280E0089580E091
:1008D0000895FC0180911101808380911201818330
:1008E00080911301828380911401838380910E0192
:1008F000848380910F01858380911001868387E036
:100900000895DC019091DA020EC0EF5F2E2F2F7751
:10091000E150291739F0F0E0E85AFD4F8D918083BE
:100920002093D9026150E091D902662371F791506A
:100930009E1B9F77993018F48FEF809331010895B3
:100940000F932EE088E190E00FB6F894A89580937D
:1009500060000FBE2093600083EF8BB98CE08AB9F2
:1009600020E048EC5FEAA895CA010197F1F72F5FF4
:100970002431C9F71AB880E895E2A0E0B0E080938E
:10098000110190931201A0931301B09314011092DE
:100990000E0110920F0188E08093100160E875E26B
:1009A00080E090E040E020E008E00E947B031092AD
:1009B000DA02109257021092D8021092D9020E94C5
:1009C000990010920D011092DB027894A8950E9474
:1009D000F0000E94C40390910D019923B9F3809116
:1009E0004B0184FFF3CF923021F482E091E068E084
:1009F00003C08AE091E062E00E94AA0080910D01AC
:100A0000815080930D01E2CF0F93FC018081809390
:100A1000110181818093120182818093130183816E
:100A200080931401948190930E01858180930F012E
:100A3000068100931001833010F010920F01913065
:100A400011F410920E0160911101709112018091C8
:100A500013019091140140910F0120910E010E9409
:100A60007B031092DA02109257021092D802109271
:100A7000D90281E00F910895A1E21A2EAA1BBB1B97
:100A8000FD010DC0AA1FBB1FEE1FFF1FA217B3075A
:100A9000E407F50720F0A21BB30BE40BF50B661F70
:100AA000771F881F991F1A9469F760957095809534
:100AB00090959B01AC01BD01CF010895F894FFCF43
:0C0AC0005AFFA12000000000020003000B
:00000001FF
