:1000000058C0AEC26FC06EC06DC06CC06BC06AC05D
:1000100069C068C067C066C065C064C063C062C0B4
:1000200061C060C05FC00902430002010080320964
:100030000400000102020100052400100104240252
:1000400002052406000105240103010705830308B6
:1000500000FF09040100020A000000070501020870
:100060000000070581020800000403090422037749
:1000700000770077002E0072006500630075007243
:1000800000730069006F006E002E006A007000109F
:10009000035500530042002D00320033003200129D
:1000A00001100102000008C016E105000101020074
:1000B000010011241FBECFEDCDBF10E0A0E6B0E0DF
:1000C000E4EFF7E002C005900D92A236B107D9F730
:1000D00010E0A2E6B0E001C01D92A13CB107E1F73B
:1000E00038D086C38DCFFC018381813049F48FE9FC
:1000F00090E090939A008093990080919F000895DA
:1001000086E290E090939A008093990083E40895AA
:10011000FC0180818076803229F48181813211F462
:100120008FEF089580E00895DC01662389F09091B7
:100130007C00E92FF0E0E559FF4F8D9180839F5FB0
:100140009F706150B1F790937C008FEF80939B007C
:10015000089583EF82BB8CE081BB90E003C0A8953B
:100160008150E9F7915011F080E0FACF11BA77D0C1
:100170007894A895C9D05D9B10C090917D00809126
:100180007C00891751F0E92FF0E0E559FF4F80819D
:100190008CB99F5F9F7090937D0080919B0087FF3B
:1001A0000DC080917C0090E020917D00821B910920
:1001B0008F709070089714F410929B005F9B0DC095
:1001C00090917B00983048F48CB1E92FF0E0ED5924
:1001D000FF4F80839F5F90937B0080918A0084FF14
:1001E000C8CF60917B00662329F480916200882348
:1001F00009F4BFCF83E690E065D080917B008870E2
:100200008093620010927B00B4CFFC011AB892E098
:100210009BB982B3806382BB80B38073803231F438
:1002200080E789B992B920E699E00DC0803131F4B8
:1002300086E289B912B820E096E905C08BE989B950
:1002400012B820E895E288E18AB92083918312826E
:1002500013821482158288E0868387E0089585B72B
:10026000826085BF8BB780648BBF8BE480938B00EB
:100270008093B6008AE580938A008093B500089544
:100280001F93DC01162F8091B50084FF07C0809179
:10029000B60098E889278093B60003C08AE580936A
:1002A000B500912FE7EBF0E08D91819391501916F5
:1002B000DCF387EB90E0612F4FD11C5F1093B5000A
:1002C0001F9108951F93DC01162F80918A0084FFEF
:1002D00007C080918B0098E8892780938B0003C02A
:1002E0008AE580938A00912FECE8F0E08D9181936C
:1002F00091501916DCF38CE890E0612F2DD11C5F32
:1003000010938A001F9108951F93CF93DF936091FC
:100310009B00635067FDA1C080919800CCE0D0E0C5
:10032000C81BD109C156DF4F80919700803118F466
:10033000CE01FADE8CC08D3209F089C0683009F038
:1003400086C083EC80937F008AE5809360001092E2
:100350007E008881807621F0CE01DADE282F65C00C
:100360009A81109288008981882321F41092890053
:1003700022E054C0853019F490939C004EC0863022
:10038000B1F58B81813041F48FE990E090939A0030
:100390008093990022E127C0823021F4CE01A3DEB0
:1003A000282F21C08330F1F4992341F489E690E0AD
:1003B00090939A008093990024E015C0913041F405
:1003C0008DE690E090939A008093990022E20BC012
:1003D000923041F48FE890E090939A0080939900D6
:1003E00020E101C020E080E480937E001EC08830C0
:1003F00021F421E08EE990E013C0893019F4909344
:100400009E000BC08A3011F421E008C08B3029F423
:100410008BE480938B008093B60020E088E890E026
:1004200090939A008093990009C02F3F39F48881F6
:1004300087FD2E8180E880937E0006C08F8188230F
:1004400019F48E81821708F0822F809361008091C9
:100450009B00181614F410929B008091600084FF9A
:1004600058C0809161008F3F09F453C0182F893024
:1004700008F018E0811B8093610080917F0098E86C
:10048000892780937F00112391F180917E0087FF5F
:1004900008C080E890E0612FB8DE182F893098F509
:1004A00026C02091990030919A0086FF0DC0A0E8E7
:1004B000B0E080E090E0F901E80FF91FE491ED93DE
:1004C00001961817C1F708C0D901912FE0E8F0E0B4
:1004D0008D9181939150E1F71150812F90E01F5F32
:1004E0000196820F931F90939A008093990080E861
:1004F00090E0612F31D0612F6C5F6C3041F08FEF55
:100500008093610004C08FEF809361006EE160937F
:10051000600094E180B38C7031F49150D9F710925F
:100520009C0010929600DF91CF911F910895A82F03
:10053000B92F80E090E041E050EA60956F5F58F499
:100540002D9138EF82279795879510F0842795276E
:100550003F5FC8F3F3CF0895EADF8D939D9308952D
:10056000CF93CFB7CF93C395839BE9F7839B09C004
:10057000839B07C0839B05C0839B03C0839B01C0F3
:10058000A6C0DF93C0919800DD27C156DF4F839B43
:1005900002C0DF91EBCF2F930F931F9300B32FEF88
:1005A00003FB20F94F933F9310B34FEF012703FB59
:1005B00021F93BE031C04E7F012F10B3216028C0EC
:1005C000102F4D7F2260000000B329C04B7F2460B4
:1005D000012F000010B32BC010B3477F28602AC042
:1005E0004F7E00B320612CC04F7D10B320622FC01E
:1005F0004F7B00B3206432C0422700B349934FEFD2
:100600000000102713FB20F910B31C70C9F1297FDB
:1006100091F2012703FB21F900B3237F89F23150C6
:1006200058F1102713FB22F910B3277E79F2012726
:1006300003FB23F92F7C81F200B3102713FB24F96D
:100640002F7971F200C010B3012703FB25F92F7336
:1006500059F200C000B3102713FB26F9223040F2F4
:1006600000C010B3012703FB27F9243028F64F7789
:10067000206810B30000F9CF10E41ABF00271CC097
:100680003B503195C31BD04010E41ABF0881033C96
:1006900011F10B3401F1209196001981110F121301
:1006A000EDCF4A81441F093659F10D3211F0013E58
:1006B00029F74F7009F0042F00939D003F914F914F
:1006C0001F910F912F91DF91CAB7C6FD4CCFCF91EB
:1006D000CFBFCF91189520919D00222379F31091DF
:1006E0009B001123C1F53430C2F130939B0020935D
:1006F0009700109198003BE0311B309398002DC07B
:1007000000919B0001303CF50AE54F7049F43091AF
:10071000600034FD24C000936000CFE7D0E023C028
:10072000433049F030918A0034FD19C000938A00AB
:10073000CBE8D0E018C03091B50034FD10C0009374
:10074000B500C6EBD0E00FC02795A8F45150A9F42E
:10075000220F0000F9CF4AE503C042ED01C0432F4C
:10076000C4E1D0E032E011B31C60939A11BB02B334
:1007700020E41CE05F93012756E002BB279520F49C
:10078000515021F4220FF9CF012756E000003B5AC7
:1007900002BBD0F2279528F4515029F4220F000013
:1007A000F9CF012756E0279502BB20F4515021F4E0
:1007B000220FF9CF012756E02991332302BB21F6FE
:1007C000037F10919C00110FC651D04002BB11F065
:1007D0001093960010E41ABF086011B3137F402FE6
:1007E000437F5F9100C000C002BB11BB42BB66CF1C
:0407F000F894FFCFAB
:0207F4005AFFAA
:00000001FF
