:100000000AC023C022C021C020C01FC0C3C01DC061
:100010001CC01BC01AC011241FBECFEDCDBF10E005
:10002000A0E6B0E0E2E7F3E003C0C89531960D9298
:10003000A236B107D1F710E0A2E6B0E001C01D92F0
:10004000AD36B107E1F7E9D093C1DACF282FF72F0A
:10005000E62F6AE258D1892F992766E070E041D1F6
:10006000482F592F822F6AE24ED166E04CD1923050
:10007000C9F0933028F4992351F0913049F50BC021
:100080009430E1F0943098F0953011F51CC08CEF6D
:100090008083418305C09CEF892F841B80839183DB
:1000A0001282089510828CEF81834283089510821A
:1000B0009CEF892F841B8183928308954083118252
:1000C0008CEF828308958CEF80831182841B82835E
:1000D0000895CF93DF93CDB7DEB723970FB6F8948B
:1000E000DEBF0FBECDBF6C2F7D2F6F5F7F4FAEDFAA
:1000F0008981809366008A81809367008B818093D9
:10010000680023960FB6F894DEBF0FBECDBFDF9117
:10011000CF9108950F931F93CF93DF93CDB7DEB7A1
:1001200023970FB6F894DEBF0FBECDBF062F6C2FFE
:100130007D2F6F5F7F4F8ADF112769817727912F8E
:10014000802FCFD06FEF70E0EAD0609366006A81B5
:100150007727912F802FC5D06FEF70E0E0D06093AC
:1001600067006B817727912F802FBBD06FEF70E0F6
:10017000D6D06093680023960FB6F894DEBF0FBE0A
:10018000CDBFDF91CF911F910F91089587E087BB7D
:10019000789408951F920F920FB60F9211248F93A7
:1001A0009F9380916100809588BB909160009F5FD4
:1001B00090936000992379F48091660080936900A0
:1001C0008091670080936A008091680080936B0043
:1001D00087E08093610080916900891729F48091FC
:1001E00061008E7F8093610080916A00891729F4F5
:1001F000809161008D7F8093610080916B008917F1
:1002000029F4809161008B7F809361009F918F9191
:100210000F900FBE0F901F901895CFEDD0E0DEBF6E
:10022000CDBF87E087BB789480E4809364008FEF34
:1002300080936C006FEF80E46DDF10926500B399DE
:1002400008C080E89EE30197F1F7B39909C081E007
:1002500005C080916500813019F482E080936500CB
:10026000B49908C080E89EE30197F1F7B49909C0FA
:1002700084E005C080916500843019F485E08093A6
:100280006500809165008130B9F0813018F08430CC
:1002900019F51AC080916400865D8093640019DFAF
:1002A00020E030E080E89EE30197F1F72F5F3F4FB9
:1002B0002431310589F0F6CF809164008F5F8093FF
:1002C000640060916C0007C060916C0064506093A2
:1002D0006C00809164001EDF80E89EE30197F1F7D7
:1002E000AECF5527002480FF02C0060E571F660FB1
:1002F000771F6115710521F096958795009799F7FD
:10030000952F802D0895991B79E004C0991F9617A9
:1003100008F0961B881F7A95C9F78095089597FB7A
:10032000092E07260AD077FD04D00CD006D0002075
:100330001AF4709561957F4F0895F6F79095819521
:100340009F4F0895AA1BBB1B51E107C0AA1FBB1FEB
:10035000A617B70710F0A61BB70B881F991F5A9551
:10036000A9F780959095682F792F8A2F9B2F089554
:02037000FFCFBD
:02037200FF0783
:00000001FF
