:100000000C942A000C9445000C9445000C94450077
:100010000C9445000C9445000C9445000C9445004C
:100020000C9445000C94EF000C9445000C94450092
:100030000C9445000C9445000C9445000C9445002C
:100040000C9445000C9445000C9445000C9445001C
:100050000C94450011241FBECFE5D4E0DEBFCDBF18
:1000600011E0A0E6B0E0E8E8F9E002C005900D92EA
:10007000A233B107D9F711E0A2E3B1E001C01D92AC
:10008000A433B107E1F70C9466040C940000CF93FD
:10009000DF93CDB7DEB722970FB6F894DEBF0FBE61
:1000A000CDBF9A838983E0E4F0E089819A81892F2A
:1000B00099278083E9E2F0E089818083EAE2F0E039
:1000C00088E18083E0E4F0E08EE8808322960FB63A
:1000D000F894DEBF0FBECDBFDF91CF910895CF93CF
:1000E000DF93CDB7DEB722970FB6F894DEBF0FBE11
:1000F000CDBF8983EBE2F0E0808199278072907018
:100100001A82009711F481E08A838A81882391F70B
:10011000ECE2F0E08981808322960FB6F894DEBF8E
:100120000FBECDBFDF91CF910895CF93DF93CDB7B1
:10013000DEB722970FB6F894DEBF0FBECDBF9A830D
:1001400089830AC0E981FA8180810E946F008981D8
:100150009A8101969A838983E981FA818081882333
:1001600089F722960FB6F894DEBF0FBECDBFDF91A0
:10017000CF910895CF93DF93CDB7DEB725970FB614
:10018000F894DEBF0FBECDBF69837A838B839C83D7
:1001900089819A81AB81BC812AE030E040E050E067
:1001A000BC01CD010E94A204DA01C9019093330180
:1001B0008093320180913201909133011D8200972A
:1001C00011F081E08D838D818823A1F725960FB6EC
:1001D000F894DEBF0FBECDBFDF91CF9108951F927F
:1001E0000F920FB60F9211248F939F93EF93FF936B
:1001F000CF93DF93CDB7DEB7809132019091330179
:1002000001979093330180933201E2E5F0E082EBB5
:100210008083DF91CF91FF91EF919F918F910F900C
:100220000FBE0F901F901895CF93DF93CDB7DEB719
:1002300022970FB6F894DEBF0FBECDBF9A83898395
:1002400089819A81FC01E85BFF4F118210828981CC
:100250009A81FC01E15BFF4F1182108289819A81B2
:10026000FC01E25BFF4F108222960FB6F894DEBFCE
:100270000FBECDBFDF91CF910895CF93DF93CDB760
:10028000DEB722970FB6F894DEBF0FBECDBF9A83BC
:10029000898389819A81FC01E85BFF4F118210827A
:1002A00089819A81FC01E15BFF4F11821082898173
:1002B0009A81FC01E25BFF4F108222960FB6F89400
:1002C000DEBF0FBECDBFDF91CF910895CF93DF93F7
:1002D000CDB7DEB726970FB6F894DEBF0FBECDBF01
:1002E0009A83898389819A819E838D8388E090E0B7
:1002F0009C838B830FC08D819E810E943D018D81E7
:100300009E818F5A9F4F9E838D838B819C81019705
:100310009C838B838B819C812FEF8F3F920759F7B2
:1003200089819A81FC01EF51FD4F81E080838981B1
:100330009A81FC01EE51FD4F8FEF9FEF91838083F7
:1003400089819A81FC01EC51FD4F8FEF9FEF9183E2
:10035000808389819A81FC01EA51FD4F10822696A3
:100360000FB6F894DEBF0FBECDBFDF91CF910895D9
:10037000CF93DF93CDB7DEB726970FB6F894DEBFE5
:100380000FBECDBF9A83898389819A819E838D8395
:1003900088E090E09C838B830FC08D819E810E94BA
:1003A0003D018D819E818F5A9F4F9E838D838B81CE
:1003B0009C8101979C838B838B819C812FEF8F3F46
:1003C000920759F789819A81FC01EF51FD4F81E035
:1003D000808389819A81FC01EE51FD4F8FEF9FEF61
:1003E0009183808389819A81FC01EC51FD4F8FEFCD
:1003F0009FEF9183808389819A81FC01EA51FD4FAF
:10040000108226960FB6F894DEBF0FBECDBFDF91E7
:10041000CF910895CF93DF93CDB7DEB722970FB674
:10042000F894DEBF0FBECDBF9A83898322960FB6A4
:10043000F894DEBF0FBECDBFDF91CF910895CF936B
:10044000DF93CDB7DEB722970FB6F894DEBF0FBEAD
:10045000CDBF9A83898322960FB6F894DEBF0FBE74
:10046000CDBFDF91CF910895CF93DF93CDB7DEB7A6
:1004700024970FB6F894DEBF0FBECDBF9A83898351
:1004800089819A810097C9F089819A819C012752BC
:100490003D4F3C832B8389819A812B813C8182173C
:1004A000930759F08B819C81815590409C838B836D
:1004B0008B819C810E941F02EECF24960FB6F89488
:1004C000DEBF0FBECDBFDF91CF910895CF93DF93F5
:1004D000CDB7DEB724970FB6F894DEBF0FBECDBF01
:1004E0009A83898389819A810097C9F089819A8149
:1004F0009C0127523D4F3C832B8389819A812B811C
:100500003C818217930759F08B819C8181559040E3
:100510009C838B838B819C810E941F02EECF24964B
:100520000FB6F894DEBF0FBECDBFDF91CF91089517
:10053000CF92EF92FF920F931F93CF93DF93CDB79C
:10054000DEB72D970FB6F894DEBF0FBECDBF9A83EE
:1005500089837C836B835E834D8338872F831A87DF
:100560000987FC86EB86CD868B819C819C01442784
:10057000552789819A81FC01E65BFF4F20833183F7
:100580004283538389819A819C01205D3F4F8D81F5
:100590009E81BC01C9010E949B0429813A818F81FF
:1005A0009885BC01C9010E949B0489819A819C01A4
:1005B000285E3F4F89859A85BC01C9010E949B0432
:1005C00089819A81FC01E15BFF4F8B859C8591833A
:1005D000808389819A81FC01E25BFF4F8D85808356
:1005E00081E090E02D960FB6F894DEBF0FBECDBF30
:1005F000DF91CF911F910F91FF90EF90CF900895D1
:10060000CF92EF92FF920F931F93CF93DF93CDB7CB
:10061000DEB724970FB6F894DEBF0FBECDBF9C8324
:100620008B838B819C81FC01E152FD4F82E090E045
:10063000918380838B819C81FC01EF51FD4F10825F
:100640008B819C81FC01EE51FD4F81E090E0918314
:1006500080838B819C81FC01EC51FD4F81E090E017
:10066000918380838B819C81FC01EA51FD4F81E065
:100670008083EB81FC8180E690E026E630E04EE668
:1006800050E0CC24EE24FF246894E3F88C0160E071
:1006900070E0CF010E9498028B819C81FC01EF5A8F
:1006A000FF4F8DE790E025E830E04CE850E0CC24A7
:1006B0000F2EF7E0EF2EFF24F02D8C0161E070E0AB
:1006C000CF010E9498028B819C81FC01EE55FF4F67
:1006D0008AE990E021EA30E04BEA50E0CC240F2E8A
:1006E000F6E0EF2EFF24F02D8C0162E070E0CF01E8
:1006F0000E9498028B819C81FC01ED50FF4F8DE799
:1007000090E025E830E044EB50E0CC240F2EF5E0FB
:10071000EF2EFF24F02D8C0163E070E0CF010E94EA
:1007200098028B819C81FC01EC5BFE4F8DE790E091
:1007300025E830E041EC50E0CC240F2EF3E0EF2E22
:10074000FF24F02D8C0164E070E0CF010E9498023C
:100750008B819C81FC01EB56FE4F8DEC90E022EEEC
:1007600030E04AEE50E0CC24EE24FF246894E1F817
:100770008C0165E070E0CF010E9498028B819C8122
:10078000FC01EA51FE4F84E091E02DE031E044E1CC
:1007900051E0CC24EE24FF246894E2F88C0166E05A
:1007A00070E0CF010E9498028B819C81FC01E95C82
:1007B000FD4F8DE790E025E830E041E251E0CC24A8
:1007C000EE24FF24E3948C0167E070E0CF010E94E7
:1007D00098028B819C81FC01E857FD4F84E091E0F9
:1007E0002DE031E04AE251E0CC240F2EF9E0EF2E6B
:1007F000FF24F02D8C0167E070E0CF010E94980289
:100800008EE291E00E9495008EE291E00E949500B8
:100810001A82198245C08EE291E00E9495002981DA
:100820003A8181E590E0AC01249FC001259F900DA5
:10083000349F900D11249C01205D3F4F8B819C8142
:10084000820F931F0E94950029813A8181E590E0F3
:10085000A901489F9001499F300D589F300D1124E8
:100860008B819C81820F931F0E94950029813A8180
:1008700081E590E0AC01249FC001259F900D349F3D
:10088000900D11249C01285E3F4F8B819C81820F2B
:10089000931F0E94950089819A8101969A8389838A
:1008A00089819A81893091050CF4B5CF81E090E07F
:1008B00024960FB6F894DEBF0FBECDBFDF91CF9167
:1008C0001F910F91FF90EF90CF900895CF93DF93FA
:1008D000CDB7DEB7C75ED2400FB6F894DEBF0FBE0D
:1008E000CDBFEBE3F0E08FEF8083EAE3F0E08FEF42
:1008F0008083E2E5F0E082EB8083E3E5F0E085E0F1
:100900008083E9E5F0E081E08083E1E3F0E082E0EC
:100910008083E2E3F0E082E0808383E390E00E9462
:1009200047007894CE0101960E946601CE0101969F
:100930000E940003FFCFFB01DC0101900D9200201B
:10094000E1F70895A1E21A2EAA1BBB1BFD010DC001
:10095000AA1FBB1FEE1FFF1FA217B307E407F5076F
:1009600020F0A21BB30BE40BF50B661F771F881F4B
:10097000991F1A9469F760957095809590959B01E1
:08098000AC01BD01CF01089597
:100988005669736974004E6F5669736974005669C5
:1009980073697420746F20417369613F00507265F8
:1009A80073656E7400416273656E74005475626598
:1009B8007263756C6F7369733F00536D6F6B65720B
:1009C800004E6F6E536D6F6B657200536D6F6B6980
:1009D8006E673F004C756E672043616E6365723FBA
:1009E8000042726F6E6368697469733F0043616E99
:1009F8006365724F72547562657263756C6F736963
:100A080073004E6F7468696E67005475626572632F
:100A1800756C6F7369734F724C756E6743616E6363
:100A280065723F0041626E6F726D616C004E6F724D
:100A38006D616C00582D526179526573756C7473D1
:100A480000447973706E65613F00447973000A0D44
:020A580000009C
:00000001FF
