:200000000AC023C022C021C020C01FC01EC01EC01CC02FC01AC011241FBECFEDCDBF10E006
:20002000A0E6B0E0ECE4F1E003C0C89531960D92A43AB107D1F710E0A4EAB0E001C01D92A7
:20004000AA3BB107E1F753D080C0DACF1F920F920FB60F9211248F93F8948CB18093A5008F
:2000600081E08093A4008F910F900FBE0F901F9018951F920F920FB60F9211248F939F93A0
:20008000EF93FF938091600090916100F92FE82FEA55FF4FE081EE2319F0ECB9019603C013
:2000A000539881E090E09093610080936000FF91EF919F918F910F900FBE0F901F901895C6
:2000C00020E030E003C0EC932F5F3F4FF92FE82FE20FF31FE081B32FA22FAA55BF4FEE233E
:2000E00091F71C92539A8091A6008CB90895CFEDD0E0DEBFCDBF8FEF87BB83E389B980EDDA
:200100008AB982E6E82E80E0F82E04E810E0C3E7D0E078948091A4008823D9F38091A50074
:20012000813319F0823359F403C09F2D8E2D02C08C2F9D2FC5DF88B3809588BB03C0912FB3
:20014000802FBEDF1092A400E4CFFFCF01000A0D776369736E616C65733A20310A0D000AFF
:200160000D776369736E616C65733A20320A0D000A0D776369736E696A206B6C617769734D
:100180007A2031206C75622032202E2E2E0A0D002E
:00000001FF
