:100000000AC023C022C021C020C01FC01EC01DC006
:100010001CC01BC01AC011241FBECFEDCDBF10E005
:10002000A0E6B0E0ECE8F0E003C0C89531960D9290
:10003000A036B107D1F710E0A0E6B0E001C01D92F4
:10004000A036B107E1F712D020C0DACF282F392F20
:1000500006C080E897E00197F1F721503040211564
:100060003105B9F70895C39A959A0895CFEDD0E078
:10007000DEBFCDBFC39A959884EF91E0E7DFC398C8
:0C008000959A84EF91E0E2DFF5CFFFCF0E
:00000001FF
