:100000000AC023C022C021C020C01FC01EC02BC0F8
:100010001CC03BC01AC011241FBECFEDCDBF10E0E5
:10002000A0E6B0E0EEE3F1E003C0C89531960D9292
:10003000A43EB107D1F710E0A4EEB0E001C01D92DC
:10004000A93EB107E1F753D079C0DACF282F392F75
:1000500006C080E897E00197F1F721503040211564
:100060003105B9F708951F920F920FB60F92112420
:100070008F938CB18093E70081E08093E4008F91AF
:100080000F900FBE0F901F9018951F920F920FB6F2
:100090000F9211248F93EF93FF938091E800E091EA
:1000A000E500F091E600882319F08E2F319601C00B
:1000B0008191F093E600E093E500882311F08CB97C
:1000C00001C05398FF91EF918F910F900FBE0F9049
:1000D0001F901895BBDF089521E02093E8009093CE
:1000E000E6008093E500539A5399FECF0895CCED36
:1000F000D0E0DEBFCDBF1B821A8281E089838FEF03
:1001000087BB88BB82E081BB82BB8CE089B980ED74
:100110008AB9789490E6C92E90E0D92E8CE8E82E22
:1001200080E0F82E08EB10E09D2D8C2DD5DF9F2D63
:0E0130008E2DD2DF912F802FCFDFF6CFFFCFA5
:10013E000A0D2D2D3E2020202020544553542031D1
:10014E0032333435363738393020202020202020E5
:10015E002020202020203C2D2D0A0D000A0D2D2DB3
:10016E002D2D3E2020204142434445464748494AD2
:10017E004B4C4D4E4F50525354555758595A2020B0
:10018E003C2D2D2D2D0A0D000A0D2D2D2D2D2D2D35
:10019E003E206162636465666768696A6B6C6D6E4A
:1001AE006F707273757778797A203C2D2D2D2D2DE9
:0401BE002D0A0D00F9
:00000001FF
