:100000000AC023C022C021C020C01FC01EC01DC006
:100010001CC01BC01AC011241FBECFEDCDBF10E005
:10002000A0E6B0E0E4E8F0E003C0C89531960D9298
:10003000A036B107D1F710E0A0E6B0E001C01D92F4
:10004000A036B107E1F70FD01CC0DACF282F392F27
:1000500006C080E897E00197F1F721503040211564
:100060003105B9F70895CFEDD0E0DEBFCDBFB99A25
:10007000C19884EF91E0EADFC19A84EF91E0E6DF76
:04008000F7CFFFCFE8
:00000001FF
