:100000000AC023C022C021C020C01FC01EC01EC005
:100010001CC030C01AC011241FBECFEDCDBF10E0F0
:10002000A0E6B0E0E2E1F4E003C0C89531960D929D
:10003000AE38B107D1F710E0AEE8B0E001C01D92D4
:10004000A53AB107E1F706D1E3C1DACF1F920F92CB
:100050000FB60F9211248F93F8948CB18093900077
:1000600081E080938E0078948F910F900FBE0F9057
:100070001F9018951F920F920FB60F9211248F9315
:100080009F93EF93FF938091600090916100F92F0F
:10009000E82FEF56FF4FE081EE2319F0ECB90196FF
:1000A00003C0539881E090E09093610080936000DA
:1000B000FF91EF919F918F910F900FBE0F901F9026
:1000C000189520E030E003C0EC932F5F3F4FF92FED
:1000D000E82FE20FF31FE081B32FA22FAF56BF4FDF
:1000E000EE2391F71C92539A809191008CB9089558
:1000F00084309105F1F0853091054CF48230910502
:1001000099F08330910594F40197F1F409C080319E
:100110009105A9F080329105A9F00897A9F40CC0C7
:10012000B89AB99AC098C198C09804C0C098C19AAA
:100130000895C09AC1980895C298C3980895C29826
:10014000C39A0895C29AC3980895282F392F06C0DC
:1001500080E897E00197F1F72150304021153105F3
:10016000B9F708950F931F93CF93DF93C0E0D0E0CA
:10017000082F112709C0969A8CE390E0E6DF969845
:100180008CE390E0E2DF2196C017D107A1F7DF9161
:10019000CF911F910F910895CF92DF92EF92FF922E
:1001A0000F931F93CF93DF93F62EC0E0D0E0082F7C
:1001B00011270BC083E090E09BDF80918F0099278F
:1001C000C4DF82E090E094DF2196C02ED12EC017CC
:1001D000D10781F7C0E0D0E00F2D11270BC080E1DF
:1001E00090E086DF80918F009927AFDF82E090E07A
:1001F0007FDF2196E02EF12EC017D10781F7C0E0F6
:10020000D0E00BC084E090E073DF80918F009927ED
:100210009CDF82E090E06CDF2196CC15DD0594F345
:10022000C0E0D0E00BC080E290E062DF80918F0000
:1002300099278BDF82E090E05BDF2196CE15DF050A
:1002400094F3DF91CF911F910F91FF90EF90DF908A
:10025000CF900895CFEDD0E0DEBFCDBF8AE0809390
:100260008F0081E090E044DF8FEF81BB83E389B9A9
:1002700080ED8AB9789483E790E023DF82E690E00E
:1002800020DF83E790E01DDF06E710E08DE7E82E32
:1002900080E0F82E80918E008823E1F38091900019
:1002A000863609F48DC0873614F5853309F49EC06F
:1002B000863384F4823309F489C0833324F4813390
:1002C00009F0A0C080C0833309F486C0843309F0EC
:1002D00099C088C0873309F48DC087330CF488C077
:1002E000883309F489C0893309F08CC087C08B3604
:1002F00009F44CC08C366CF4883609F447C0883653
:100300000CF451C0893609F45BC08A3609F07AC012
:1003100032C0843709F44AC0853724F48C3609F09A
:1003200071C026C0883721F0893709F06BC010C032
:10033000C0E0D0E0969A84E690E007DF969884E6E5
:1003400090E003DF2196C630D10509F45EC0F2CFFC
:10035000C0E0D0E0969A84E690E0F7DE969884E6D6
:1003600090E0F3DE2196C330D10509F44EC0F2CF00
:1003700083E090E002C084E090E0BADE80918F00DC
:100380009927E3DE82E090E0B3DE3FC080E290E0B8
:10039000AFDE80918F009927D8DE88E090E0A8DE5C
:1003A000912F802F31C084E090E002C083E090E084
:1003B0009FDE80918F009927C8DE82E090E0EFCF2A
:1003C00080E190E0E5CF84E090E002C083E090E03F
:1003D0008FDE85E090E0F0CF80E290E089DE85E07E
:1003E00090E0DACF6AE08AE0D7DE0FC085E007C090
:1003F00087E005C08AE003C084E101C082E3809306
:100400008F0003C09F2D8E2D5CDE10928E0042CF98
:02041000FFCF1C
:1004120001000A0D4D494E495F504C4F5445525F01
:100422003031000A0D000A0D4F4B0A0D000D0A4330
:0E0432004D445F4E4F54494D504C0A0D000092
:00000001FF
